{
  "_format": "hh-sol-artifact-1",
  "contractName": "FiatPayment",
  "sourceName": "contracts/FiatPayment.sol",
  "abi": [
    {
      "inputs": [
        {
          "internalType": "address",
          "name": "_deliveryContract",
          "type": "address"
        }
      ],
      "stateMutability": "nonpayable",
      "type": "constructor"
    },
    {
      "anonymous": false,
      "inputs": [
        {
          "indexed": true,
          "internalType": "uint256",
          "name": "deliveryId",
          "type": "uint256"
        },
        {
          "indexed": false,
          "internalType": "uint256",
          "name": "amount",
          "type": "uint256"
        }
      ],
      "name": "PaymentDeposited",
      "type": "event"
    },
    {
      "anonymous": false,
      "inputs": [
        {
          "indexed": true,
          "internalType": "uint256",
          "name": "deliveryId",
          "type": "uint256"
        },
        {
          "indexed": false,
          "internalType": "address",
          "name": "courier",
          "type": "address"
        },
        {
          "indexed": false,
          "internalType": "uint256",
          "name": "amount",
          "type": "uint256"
        }
      ],
      "name": "PaymentReleased",
      "type": "event"
    },
    {
      "inputs": [],
      "name": "deliveryContract",
      "outputs": [
        {
          "internalType": "contract DeliveryManagement",
          "name": "",
          "type": "address"
        }
      ],
      "stateMutability": "view",
      "type": "function"
    },
    {
      "inputs": [
        {
          "internalType": "uint256",
          "name": "deliveryId",
          "type": "uint256"
        }
      ],
      "name": "depositPayment",
      "outputs": [],
      "stateMutability": "payable",
      "type": "function"
    },
    {
      "inputs": [
        {
          "internalType": "uint256",
          "name": "",
          "type": "uint256"
        }
      ],
      "name": "deposits",
      "outputs": [
        {
          "internalType": "uint256",
          "name": "",
          "type": "uint256"
        }
      ],
      "stateMutability": "view",
      "type": "function"
    },
    {
      "inputs": [
        {
          "internalType": "uint256",
          "name": "deliveryId",
          "type": "uint256"
        }
      ],
      "name": "releasePayment",
      "outputs": [],
      "stateMutability": "nonpayable",
      "type": "function"
    }
  ],
  "bytecode": "0x60a06040523480156200001157600080fd5b5060405162000f4a38038062000f4a83398181016040528101906200003791906200014e565b600073ffffffffffffffffffffffffffffffffffffffff168173ffffffffffffffffffffffffffffffffffffffff1603620000a9576040517f08c379a0000000000000000000000000000000000000000000000000000000008152600401620000a090620001e1565b60405180910390fd5b8073ffffffffffffffffffffffffffffffffffffffff1660808173ffffffffffffffffffffffffffffffffffffffff16815250505062000203565b600080fd5b600073ffffffffffffffffffffffffffffffffffffffff82169050919050565b60006200011682620000e9565b9050919050565b620001288162000109565b81146200013457600080fd5b50565b60008151905062000148816200011d565b92915050565b600060208284031215620001675762000166620000e4565b5b6000620001778482850162000137565b91505092915050565b600082825260208201905092915050565b7f496e76616c696420636f6e747261637420616464726573730000000000000000600082015250565b6000620001c960188362000180565b9150620001d68262000191565b602082019050919050565b60006020820190508181036000830152620001fc81620001ba565b9050919050565b608051610d09620002416000396000818160f4015281816101fd0152818161038401528181610480015281816105b001526107010152610d096000f3fe60806040526004361061003f5760003560e01c80636b749c471461004457806388685cd914610060578063ae2e377a14610089578063b02c43d0146100b4575b600080fd5b61005e60048036038101906100599190610776565b6100f1565b005b34801561006c57600080fd5b5061008760048036038101906100829190610776565b610382565b005b34801561009557600080fd5b5061009e6106ff565b6040516100ab9190610822565b60405180910390f35b3480156100c057600080fd5b506100db60048036038101906100d69190610776565b610723565b6040516100e8919061084c565b60405180910390f35b807f000000000000000000000000000000000000000000000000000000000000000073ffffffffffffffffffffffffffffffffffffffff1663b971302a826040518263ffffffff1660e01b815260040161014b919061084c565b602060405180830381865afa158015610168573d6000803e3d6000fd5b505050506040513d601f19601f8201168201806040525081019061018c91906108a5565b73ffffffffffffffffffffffffffffffffffffffff163373ffffffffffffffffffffffffffffffffffffffff16146101f9576040517f08c379a00000000000000000000000000000000000000000000000000000000081526004016101f09061092f565b60405180910390fd5b60007f000000000000000000000000000000000000000000000000000000000000000073ffffffffffffffffffffffffffffffffffffffff1663765f2079846040518263ffffffff1660e01b8152600401610254919061084c565b602060405180830381865afa158015610271573d6000803e3d6000fd5b505050506040513d601f19601f820116820180604052508101906102959190610964565b9050600034116102da576040517f08c379a00000000000000000000000000000000000000000000000000000000081526004016102d190610a03565b60405180910390fd5b80341461031c576040517f08c379a000000000000000000000000000000000000000000000000000000000815260040161031390610a6f565b60405180910390fd5b34600080858152602001908152602001600020600082825461033e9190610abe565b92505081905550827f6a7ac62510e3fd37d671bbf21ff3561ac1ba8b56ab899d4e30790a4ba4324e8534604051610375919061084c565b60405180910390a2505050565b7f000000000000000000000000000000000000000000000000000000000000000073ffffffffffffffffffffffffffffffffffffffff1663f851a4406040518163ffffffff1660e01b8152600401602060405180830381865afa1580156103ed573d6000803e3d6000fd5b505050506040513d601f19601f8201168201806040525081019061041191906108a5565b73ffffffffffffffffffffffffffffffffffffffff163373ffffffffffffffffffffffffffffffffffffffff161461047e576040517f08c379a000000000000000000000000000000000000000000000000000000000815260040161047590610b3e565b60405180910390fd5b7f000000000000000000000000000000000000000000000000000000000000000073ffffffffffffffffffffffffffffffffffffffff166330c62344826040518263ffffffff1660e01b81526004016104d7919061084c565b602060405180830381865afa1580156104f4573d6000803e3d6000fd5b505050506040513d601f19601f820116820180604052508101906105189190610b96565b610557576040517f08c379a000000000000000000000000000000000000000000000000000000000815260040161054e90610c0f565b60405180910390fd5b600080600083815260200190815260200160002054116105ac576040517f08c379a00000000000000000000000000000000000000000000000000000000081526004016105a390610c7b565b60405180910390fd5b60007f000000000000000000000000000000000000000000000000000000000000000073ffffffffffffffffffffffffffffffffffffffff1663a3ea706d836040518263ffffffff1660e01b8152600401610607919061084c565b602060405180830381865afa158015610624573d6000803e3d6000fd5b505050506040513d601f19601f8201168201806040525081019061064891906108a5565b905060008060008481526020019081526020016000205490506000806000858152602001908152602001600020819055508173ffffffffffffffffffffffffffffffffffffffff166108fc829081150290604051600060405180830381858888f193505050501580156106bf573d6000803e3d6000fd5b50827f21d71db5be59bb9fa133895586b7404307dd33fb93b16db09dc6f1d9d7d231b083836040516106f2929190610caa565b60405180910390a2505050565b7f000000000000000000000000000000000000000000000000000000000000000081565b60006020528060005260406000206000915090505481565b600080fd5b6000819050919050565b61075381610740565b811461075e57600080fd5b50565b6000813590506107708161074a565b92915050565b60006020828403121561078c5761078b61073b565b5b600061079a84828501610761565b91505092915050565b600073ffffffffffffffffffffffffffffffffffffffff82169050919050565b6000819050919050565b60006107e86107e36107de846107a3565b6107c3565b6107a3565b9050919050565b60006107fa826107cd565b9050919050565b600061080c826107ef565b9050919050565b61081c81610801565b82525050565b60006020820190506108376000830184610813565b92915050565b61084681610740565b82525050565b6000602082019050610861600083018461083d565b92915050565b6000610872826107a3565b9050919050565b61088281610867565b811461088d57600080fd5b50565b60008151905061089f81610879565b92915050565b6000602082840312156108bb576108ba61073b565b5b60006108c984828501610890565b91505092915050565b600082825260208201905092915050565b7f4f6e6c792073656e6465722063616e206465706f736974000000000000000000600082015250565b60006109196017836108d2565b9150610924826108e3565b602082019050919050565b600060208201905081810360008301526109488161090c565b9050919050565b60008151905061095e8161074a565b92915050565b60006020828403121561097a5761097961073b565b5b60006109888482850161094f565b91505092915050565b7f4465706f736974206d7573742062652067726561746572207468616e207a657260008201527f6f00000000000000000000000000000000000000000000000000000000000000602082015250565b60006109ed6021836108d2565b91506109f882610991565b604082019050919050565b60006020820190508181036000830152610a1c816109e0565b9050919050565b7f496e636f7272656374206465706f73697420616d6f756e740000000000000000600082015250565b6000610a596018836108d2565b9150610a6482610a23565b602082019050919050565b60006020820190508181036000830152610a8881610a4c565b9050919050565b7f4e487b7100000000000000000000000000000000000000000000000000000000600052601160045260246000fd5b6000610ac982610740565b9150610ad483610740565b9250828201905080821115610aec57610aeb610a8f565b5b92915050565b7f4f6e6c792061646d696e2063616e2072656c65617365207061796d656e740000600082015250565b6000610b28601e836108d2565b9150610b3382610af2565b602082019050919050565b60006020820190508181036000830152610b5781610b1b565b9050919050565b60008115159050919050565b610b7381610b5e565b8114610b7e57600080fd5b50565b600081519050610b9081610b6a565b92915050565b600060208284031215610bac57610bab61073b565b5b6000610bba84828501610b81565b91505092915050565b7f44656c6976657279206e6f7420617070726f7665640000000000000000000000600082015250565b6000610bf96015836108d2565b9150610c0482610bc3565b602082019050919050565b60006020820190508181036000830152610c2881610bec565b9050919050565b7f4e6f206465706f73697420617661696c61626c65000000000000000000000000600082015250565b6000610c656014836108d2565b9150610c7082610c2f565b602082019050919050565b60006020820190508181036000830152610c9481610c58565b9050919050565b610ca481610867565b82525050565b6000604082019050610cbf6000830185610c9b565b610ccc602083018461083d565b939250505056fea264697066735822122032e3f2dad77229f3d2a2672de812025723cc25b27944d7ee876ba21d1083cc3764736f6c63430008140033",
  "linkReferences": {},
  "deployedLinkReferences": {}
}