{
  "_format": "hh-sol-artifact-1",
  "contractName": "ProofOfDelivery",
  "sourceName": "contracts/ProofOfDelivery.sol",
  "abi": [
    {
      "inputs": [
        {
          "internalType": "address",
          "name": "_deliveryContract",
          "type": "address"
        }
      ],
      "stateMutability": "nonpayable",
      "type": "constructor"
    },
    {
      "anonymous": false,
      "inputs": [
        {
          "indexed": true,
          "internalType": "uint256",
          "name": "deliveryId",
          "type": "uint256"
        },
        {
          "indexed": false,
          "internalType": "address",
          "name": "recipient",
          "type": "address"
        }
      ],
      "name": "DeliveryApproved",
      "type": "event"
    },
    {
      "inputs": [
        {
          "internalType": "uint256",
          "name": "deliveryId",
          "type": "uint256"
        }
      ],
      "name": "approveDelivery",
      "outputs": [],
      "stateMutability": "nonpayable",
      "type": "function"
    },
    {
      "inputs": [
        {
          "internalType": "uint256",
          "name": "",
          "type": "uint256"
        }
      ],
      "name": "approvedDeliveries",
      "outputs": [
        {
          "internalType": "bool",
          "name": "",
          "type": "bool"
        }
      ],
      "stateMutability": "view",
      "type": "function"
    },
    {
      "inputs": [],
      "name": "deliveryContract",
      "outputs": [
        {
          "internalType": "contract DeliveryManagement",
          "name": "",
          "type": "address"
        }
      ],
      "stateMutability": "view",
      "type": "function"
    },
    {
      "inputs": [
        {
          "internalType": "uint256",
          "name": "deliveryId",
          "type": "uint256"
        }
      ],
      "name": "isDeliveryApproved",
      "outputs": [
        {
          "internalType": "bool",
          "name": "",
          "type": "bool"
        }
      ],
      "stateMutability": "view",
      "type": "function"
    }
  ],
  "bytecode": "0x60a060405234801561001057600080fd5b506040516108473803806108478339818101604052810190610032919061013e565b600073ffffffffffffffffffffffffffffffffffffffff168173ffffffffffffffffffffffffffffffffffffffff16036100a1576040517f08c379a0000000000000000000000000000000000000000000000000000000008152600401610098906101c8565b60405180910390fd5b8073ffffffffffffffffffffffffffffffffffffffff1660808173ffffffffffffffffffffffffffffffffffffffff1681525050506101e8565b600080fd5b600073ffffffffffffffffffffffffffffffffffffffff82169050919050565b600061010b826100e0565b9050919050565b61011b81610100565b811461012657600080fd5b50565b60008151905061013881610112565b92915050565b600060208284031215610154576101536100db565b5b600061016284828501610129565b91505092915050565b600082825260208201905092915050565b7f496e76616c696420636f6e747261637420616464726573730000000000000000600082015250565b60006101b260188361016b565b91506101bd8261017c565b602082019050919050565b600060208201905081810360008301526101e1816101a5565b9050919050565b60805161063d61020a60003960008181610116015261013b015261063d6000f3fe608060405234801561001057600080fd5b506004361061004c5760003560e01c806330c6234414610051578063ae2e377a14610081578063c94b674b1461009f578063c9c8b64f146100bb575b600080fd5b61006b60048036038101906100669190610362565b6100eb565b60405161007891906103aa565b60405180910390f35b610089610114565b6040516100969190610444565b60405180910390f35b6100b960048036038101906100b49190610362565b610138565b005b6100d560048036038101906100d09190610362565b610307565b6040516100e291906103aa565b60405180910390f35b600080600083815260200190815260200160002060009054906101000a900460ff169050919050565b7f000000000000000000000000000000000000000000000000000000000000000081565b807f000000000000000000000000000000000000000000000000000000000000000073ffffffffffffffffffffffffffffffffffffffff16636d0cee75826040518263ffffffff1660e01b8152600401610192919061046e565b602060405180830381865afa1580156101af573d6000803e3d6000fd5b505050506040513d601f19601f820116820180604052508101906101d391906104c7565b73ffffffffffffffffffffffffffffffffffffffff163373ffffffffffffffffffffffffffffffffffffffff1614610240576040517f08c379a000000000000000000000000000000000000000000000000000000000815260040161023790610551565b60405180910390fd5b60008083815260200190815260200160002060009054906101000a900460ff16156102a0576040517f08c379a0000000000000000000000000000000000000000000000000000000008152600401610297906105bd565b60405180910390fd5b600160008084815260200190815260200160002060006101000a81548160ff021916908315150217905550817f8c2e6d9f2c8d46890dd98cc58f96c0559f4e3dbd81777312fefca01fcf46ba9c336040516102fb91906105ec565b60405180910390a25050565b60006020528060005260406000206000915054906101000a900460ff1681565b600080fd5b6000819050919050565b61033f8161032c565b811461034a57600080fd5b50565b60008135905061035c81610336565b92915050565b60006020828403121561037857610377610327565b5b60006103868482850161034d565b91505092915050565b60008115159050919050565b6103a48161038f565b82525050565b60006020820190506103bf600083018461039b565b92915050565b600073ffffffffffffffffffffffffffffffffffffffff82169050919050565b6000819050919050565b600061040a610405610400846103c5565b6103e5565b6103c5565b9050919050565b600061041c826103ef565b9050919050565b600061042e82610411565b9050919050565b61043e81610423565b82525050565b60006020820190506104596000830184610435565b92915050565b6104688161032c565b82525050565b6000602082019050610483600083018461045f565b92915050565b6000610494826103c5565b9050919050565b6104a481610489565b81146104af57600080fd5b50565b6000815190506104c18161049b565b92915050565b6000602082840312156104dd576104dc610327565b5b60006104eb848285016104b2565b91505092915050565b600082825260208201905092915050565b7f4f6e6c7920726563697069656e742063616e20617070726f7665000000000000600082015250565b600061053b601a836104f4565b915061054682610505565b602082019050919050565b6000602082019050818103600083015261056a8161052e565b9050919050565b7f44656c697665727920616c726561647920617070726f76656400000000000000600082015250565b60006105a76019836104f4565b91506105b282610571565b602082019050919050565b600060208201905081810360008301526105d68161059a565b9050919050565b6105e681610489565b82525050565b600060208201905061060160008301846105dd565b9291505056fea2646970667358221220645d31e7051ffd784749dd71156ea03a67839154ec51503d567277fd4037981464736f6c63430008140033",
  "linkReferences": {},
  "deployedLinkReferences": {}
}