{
  "_format": "hh-sol-artifact-1",
  "contractName": "DeliveryManagement",
  "sourceName": "contracts/DeliveryManagement.sol",
  "abi": [
    {
      "inputs": [],
      "stateMutability": "nonpayable",
      "type": "constructor"
    },
    {
      "anonymous": false,
      "inputs": [
        {
          "indexed": true,
          "internalType": "uint256",
          "name": "deliveryId",
          "type": "uint256"
        },
        {
          "indexed": false,
          "internalType": "address",
          "name": "recipient",
          "type": "address"
        }
      ],
      "name": "DeliveryApproved",
      "type": "event"
    },
    {
      "anonymous": false,
      "inputs": [
        {
          "indexed": true,
          "internalType": "uint256",
          "name": "deliveryId",
          "type": "uint256"
        },
        {
          "indexed": false,
          "internalType": "address",
          "name": "sender",
          "type": "address"
        }
      ],
      "name": "DeliveryCanceled",
      "type": "event"
    },
    {
      "anonymous": false,
      "inputs": [
        {
          "indexed": true,
          "internalType": "uint256",
          "name": "deliveryId",
          "type": "uint256"
        },
        {
          "indexed": false,
          "internalType": "address",
          "name": "courier",
          "type": "address"
        }
      ],
      "name": "DeliveryConfirmed",
      "type": "event"
    },
    {
      "anonymous": false,
      "inputs": [
        {
          "indexed": true,
          "internalType": "uint256",
          "name": "deliveryId",
          "type": "uint256"
        },
        {
          "indexed": false,
          "internalType": "address",
          "name": "sender",
          "type": "address"
        },
        {
          "indexed": false,
          "internalType": "address",
          "name": "courier",
          "type": "address"
        },
        {
          "indexed": false,
          "internalType": "address",
          "name": "recipient",
          "type": "address"
        },
        {
          "indexed": false,
          "internalType": "uint256",
          "name": "totalCost",
          "type": "uint256"
        }
      ],
      "name": "DeliveryCreated",
      "type": "event"
    },
    {
      "anonymous": false,
      "inputs": [
        {
          "indexed": true,
          "internalType": "uint256",
          "name": "deliveryId",
          "type": "uint256"
        },
        {
          "indexed": false,
          "internalType": "address",
          "name": "sender",
          "type": "address"
        },
        {
          "indexed": false,
          "internalType": "uint256",
          "name": "amount",
          "type": "uint256"
        }
      ],
      "name": "PaymentRefunded",
      "type": "event"
    },
    {
      "inputs": [],
      "name": "admin",
      "outputs": [
        {
          "internalType": "address",
          "name": "",
          "type": "address"
        }
      ],
      "stateMutability": "view",
      "type": "function"
    },
    {
      "inputs": [
        {
          "internalType": "uint256",
          "name": "deliveryId",
          "type": "uint256"
        }
      ],
      "name": "approveDelivery",
      "outputs": [],
      "stateMutability": "nonpayable",
      "type": "function"
    },
    {
      "inputs": [
        {
          "internalType": "uint256",
          "name": "",
          "type": "uint256"
        }
      ],
      "name": "approvedDeliveries",
      "outputs": [
        {
          "internalType": "bool",
          "name": "",
          "type": "bool"
        }
      ],
      "stateMutability": "view",
      "type": "function"
    },
    {
      "inputs": [
        {
          "internalType": "uint256",
          "name": "deliveryId",
          "type": "uint256"
        }
      ],
      "name": "cancelDelivery",
      "outputs": [],
      "stateMutability": "nonpayable",
      "type": "function"
    },
    {
      "inputs": [
        {
          "internalType": "uint256",
          "name": "deliveryId",
          "type": "uint256"
        }
      ],
      "name": "confirmDelivery",
      "outputs": [],
      "stateMutability": "nonpayable",
      "type": "function"
    },
    {
      "inputs": [
        {
          "internalType": "uint256",
          "name": "deliveryId",
          "type": "uint256"
        },
        {
          "internalType": "address",
          "name": "courier",
          "type": "address"
        },
        {
          "internalType": "address",
          "name": "recipient",
          "type": "address"
        },
        {
          "internalType": "uint256",
          "name": "totalCost",
          "type": "uint256"
        }
      ],
      "name": "createDelivery",
      "outputs": [],
      "stateMutability": "nonpayable",
      "type": "function"
    },
    {
      "inputs": [
        {
          "internalType": "uint256",
          "name": "",
          "type": "uint256"
        }
      ],
      "name": "deliveries",
      "outputs": [
        {
          "internalType": "address",
          "name": "sender",
          "type": "address"
        },
        {
          "internalType": "address",
          "name": "courier",
          "type": "address"
        },
        {
          "internalType": "address",
          "name": "recipient",
          "type": "address"
        },
        {
          "internalType": "uint256",
          "name": "totalCost",
          "type": "uint256"
        },
        {
          "internalType": "bool",
          "name": "isDelivered",
          "type": "bool"
        },
        {
          "internalType": "bool",
          "name": "isPaid",
          "type": "bool"
        }
      ],
      "stateMutability": "view",
      "type": "function"
    },
    {
      "inputs": [
        {
          "internalType": "uint256",
          "name": "deliveryId",
          "type": "uint256"
        }
      ],
      "name": "getCourier",
      "outputs": [
        {
          "internalType": "address",
          "name": "",
          "type": "address"
        }
      ],
      "stateMutability": "view",
      "type": "function"
    },
    {
      "inputs": [
        {
          "internalType": "uint256",
          "name": "deliveryId",
          "type": "uint256"
        }
      ],
      "name": "getRecipient",
      "outputs": [
        {
          "internalType": "address",
          "name": "",
          "type": "address"
        }
      ],
      "stateMutability": "view",
      "type": "function"
    },
    {
      "inputs": [
        {
          "internalType": "uint256",
          "name": "deliveryId",
          "type": "uint256"
        }
      ],
      "name": "getSender",
      "outputs": [
        {
          "internalType": "address",
          "name": "",
          "type": "address"
        }
      ],
      "stateMutability": "view",
      "type": "function"
    },
    {
      "inputs": [
        {
          "internalType": "uint256",
          "name": "deliveryId",
          "type": "uint256"
        }
      ],
      "name": "getTotalCost",
      "outputs": [
        {
          "internalType": "uint256",
          "name": "",
          "type": "uint256"
        }
      ],
      "stateMutability": "view",
      "type": "function"
    },
    {
      "inputs": [
        {
          "internalType": "uint256",
          "name": "deliveryId",
          "type": "uint256"
        }
      ],
      "name": "isDeliveryApproved",
      "outputs": [
        {
          "internalType": "bool",
          "name": "",
          "type": "bool"
        }
      ],
      "stateMutability": "view",
      "type": "function"
    },
    {
      "inputs": [
        {
          "internalType": "uint256",
          "name": "deliveryId",
          "type": "uint256"
        }
      ],
      "name": "isDeliveryDelivered",
      "outputs": [
        {
          "internalType": "bool",
          "name": "",
          "type": "bool"
        }
      ],
      "stateMutability": "view",
      "type": "function"
    },
    {
      "inputs": [
        {
          "internalType": "uint256",
          "name": "deliveryId",
          "type": "uint256"
        }
      ],
      "name": "refundPayment",
      "outputs": [],
      "stateMutability": "payable",
      "type": "function"
    }
  ],
  "bytecode": "0x60a060405234801561001057600080fd5b503373ffffffffffffffffffffffffffffffffffffffff1660808173ffffffffffffffffffffffffffffffffffffffff16815250506080516118276100606000396000610f5a01526118276000f3fe6080604052600436106100dd5760003560e01c8063b971302a1161007f578063e785e34a11610059578063e785e34a14610321578063f63813f41461034a578063f851a44014610366578063fd84cb9714610391576100dd565b8063b971302a1461027e578063c94b674b146102bb578063c9c8b64f146102e4576100dd565b8063765f2079116100bb578063765f207914610199578063a3ea706d146101d6578063a9e4a32414610213578063b4d9047614610255576100dd565b806314f7f094146100e257806330c623441461011f5780636d0cee751461015c575b600080fd5b3480156100ee57600080fd5b50610109600480360381019061010491906110c5565b6103ba565b604051610116919061110d565b60405180910390f35b34801561012b57600080fd5b50610146600480360381019061014191906110c5565b6103e6565b604051610153919061110d565b60405180910390f35b34801561016857600080fd5b50610183600480360381019061017e91906110c5565b610410565b6040516101909190611169565b60405180910390f35b3480156101a557600080fd5b506101c060048036038101906101bb91906110c5565b61044f565b6040516101cd9190611193565b60405180910390f35b3480156101e257600080fd5b506101fd60048036038101906101f891906110c5565b61046e565b60405161020a9190611169565b60405180910390f35b34801561021f57600080fd5b5061023a600480360381019061023591906110c5565b6104ad565b60405161024c969594939291906111ae565b60405180910390f35b34801561026157600080fd5b5061027c600480360381019061027791906110c5565b610563565b005b34801561028a57600080fd5b506102a560048036038101906102a091906110c5565b6107c1565b6040516102b29190611169565b60405180910390f35b3480156102c757600080fd5b506102e260048036038101906102dd91906110c5565b610800565b005b3480156102f057600080fd5b5061030b600480360381019061030691906110c5565b61090b565b604051610318919061110d565b60405180910390f35b34801561032d57600080fd5b506103486004803603810190610343919061123b565b61092b565b005b610364600480360381019061035f91906110c5565b610cdd565b005b34801561037257600080fd5b5061037b610f58565b6040516103889190611169565b60405180910390f35b34801561039d57600080fd5b506103b860048036038101906103b391906110c5565b610f7c565b005b600080600083815260200190815260200160002060040160009054906101000a900460ff169050919050565b60006001600083815260200190815260200160002060009054906101000a900460ff169050919050565b600080600083815260200190815260200160002060020160009054906101000a900473ffffffffffffffffffffffffffffffffffffffff169050919050565b6000806000838152602001908152602001600020600301549050919050565b600080600083815260200190815260200160002060010160009054906101000a900473ffffffffffffffffffffffffffffffffffffffff169050919050565b60006020528060005260406000206000915090508060000160009054906101000a900473ffffffffffffffffffffffffffffffffffffffff16908060010160009054906101000a900473ffffffffffffffffffffffffffffffffffffffff16908060020160009054906101000a900473ffffffffffffffffffffffffffffffffffffffff16908060030154908060040160009054906101000a900460ff16908060040160019054906101000a900460ff16905086565b8060008082815260200190815260200160002060000160009054906101000a900473ffffffffffffffffffffffffffffffffffffffff1673ffffffffffffffffffffffffffffffffffffffff163373ffffffffffffffffffffffffffffffffffffffff1614610607576040517f08c379a00000000000000000000000000000000000000000000000000000000081526004016105fe90611325565b60405180910390fd5b60008083815260200190815260200160002060040160009054906101000a900460ff161561066a576040517f08c379a000000000000000000000000000000000000000000000000000000000815260040161066190611391565b60405180910390fd5b6001600083815260200190815260200160002060009054906101000a900460ff16156106cb576040517f08c379a00000000000000000000000000000000000000000000000000000000081526004016106c2906113fd565b60405180910390fd5b600080838152602001908152602001600020600080820160006101000a81549073ffffffffffffffffffffffffffffffffffffffff02191690556001820160006101000a81549073ffffffffffffffffffffffffffffffffffffffff02191690556002820160006101000a81549073ffffffffffffffffffffffffffffffffffffffff021916905560038201600090556004820160006101000a81549060ff02191690556004820160016101000a81549060ff02191690555050817f14266268ddb17bc6a0656052d0e6d4de1f4f89cc11106958946c1033ee0dd45a336040516107b59190611169565b60405180910390a25050565b600080600083815260200190815260200160002060000160009054906101000a900473ffffffffffffffffffffffffffffffffffffffff169050919050565b8060008082815260200190815260200160002060020160009054906101000a900473ffffffffffffffffffffffffffffffffffffffff1673ffffffffffffffffffffffffffffffffffffffff163373ffffffffffffffffffffffffffffffffffffffff16146108a4576040517f08c379a000000000000000000000000000000000000000000000000000000000815260040161089b9061148f565b60405180910390fd5b600180600084815260200190815260200160002060006101000a81548160ff021916908315150217905550817f8c2e6d9f2c8d46890dd98cc58f96c0559f4e3dbd81777312fefca01fcf46ba9c336040516108ff9190611169565b60405180910390a25050565b60016020528060005260406000206000915054906101000a900460ff1681565b600073ffffffffffffffffffffffffffffffffffffffff1660008086815260200190815260200160002060000160009054906101000a900473ffffffffffffffffffffffffffffffffffffffff1673ffffffffffffffffffffffffffffffffffffffff16146109cf576040517f08c379a00000000000000000000000000000000000000000000000000000000081526004016109c6906114fb565b60405180910390fd5b600073ffffffffffffffffffffffffffffffffffffffff168373ffffffffffffffffffffffffffffffffffffffff1603610a3e576040517f08c379a0000000000000000000000000000000000000000000000000000000008152600401610a3590611567565b60405180910390fd5b600073ffffffffffffffffffffffffffffffffffffffff168273ffffffffffffffffffffffffffffffffffffffff1603610aad576040517f08c379a0000000000000000000000000000000000000000000000000000000008152600401610aa4906115d3565b60405180910390fd5b60008111610af0576040517f08c379a0000000000000000000000000000000000000000000000000000000008152600401610ae790611665565b60405180910390fd5b6040518060c001604052803373ffffffffffffffffffffffffffffffffffffffff1681526020018473ffffffffffffffffffffffffffffffffffffffff1681526020018373ffffffffffffffffffffffffffffffffffffffff1681526020018281526020016000151581526020016000151581525060008086815260200190815260200160002060008201518160000160006101000a81548173ffffffffffffffffffffffffffffffffffffffff021916908373ffffffffffffffffffffffffffffffffffffffff16021790555060208201518160010160006101000a81548173ffffffffffffffffffffffffffffffffffffffff021916908373ffffffffffffffffffffffffffffffffffffffff16021790555060408201518160020160006101000a81548173ffffffffffffffffffffffffffffffffffffffff021916908373ffffffffffffffffffffffffffffffffffffffff1602179055506060820151816003015560808201518160040160006101000a81548160ff02191690831515021790555060a08201518160040160016101000a81548160ff021916908315150217905550905050837fcac66eeea15913e859fe0244fbf74dfd998a35920f3ff8959650b34b566d2ae933858585604051610ccf9493929190611685565b60405180910390a250505050565b8060008082815260200190815260200160002060000160009054906101000a900473ffffffffffffffffffffffffffffffffffffffff1673ffffffffffffffffffffffffffffffffffffffff163373ffffffffffffffffffffffffffffffffffffffff1614610d81576040517f08c379a0000000000000000000000000000000000000000000000000000000008152600401610d7890611325565b60405180910390fd5b60008083815260200190815260200160002060040160009054906101000a900460ff1615610de4576040517f08c379a0000000000000000000000000000000000000000000000000000000008152600401610ddb90611391565b60405180910390fd5b6001600083815260200190815260200160002060009054906101000a900460ff1615610e45576040517f08c379a0000000000000000000000000000000000000000000000000000000008152600401610e3c906113fd565b60405180910390fd5b60008060008481526020019081526020016000206003015411610e9d576040517f08c379a0000000000000000000000000000000000000000000000000000000008152600401610e9490611716565b60405180910390fd5b60008060008481526020019081526020016000206003015490506000806000858152602001908152602001600020600301819055503373ffffffffffffffffffffffffffffffffffffffff166108fc829081150290604051600060405180830381858888f19350505050158015610f18573d6000803e3d6000fd5b50827fe89ec1881a76229445bcd179b8c4b24f9edc7ddd87d07fb3b19c67ae9c6e27cc3383604051610f4b929190611736565b60405180910390a2505050565b7f000000000000000000000000000000000000000000000000000000000000000081565b8060008082815260200190815260200160002060010160009054906101000a900473ffffffffffffffffffffffffffffffffffffffff1673ffffffffffffffffffffffffffffffffffffffff163373ffffffffffffffffffffffffffffffffffffffff1614611020576040517f08c379a0000000000000000000000000000000000000000000000000000000008152600401611017906117d1565b60405180910390fd5b600160008084815260200190815260200160002060040160006101000a81548160ff021916908315150217905550817f64a783c6150854ae756454311c7625a965c757996ba8cc1a8c6205380f3372503360405161107e9190611169565b60405180910390a25050565b600080fd5b6000819050919050565b6110a28161108f565b81146110ad57600080fd5b50565b6000813590506110bf81611099565b92915050565b6000602082840312156110db576110da61108a565b5b60006110e9848285016110b0565b91505092915050565b60008115159050919050565b611107816110f2565b82525050565b600060208201905061112260008301846110fe565b92915050565b600073ffffffffffffffffffffffffffffffffffffffff82169050919050565b600061115382611128565b9050919050565b61116381611148565b82525050565b600060208201905061117e600083018461115a565b92915050565b61118d8161108f565b82525050565b60006020820190506111a86000830184611184565b92915050565b600060c0820190506111c3600083018961115a565b6111d0602083018861115a565b6111dd604083018761115a565b6111ea6060830186611184565b6111f760808301856110fe565b61120460a08301846110fe565b979650505050505050565b61121881611148565b811461122357600080fd5b50565b6000813590506112358161120f565b92915050565b600080600080608085870312156112555761125461108a565b5b6000611263878288016110b0565b945050602061127487828801611226565b935050604061128587828801611226565b9250506060611296878288016110b0565b91505092959194509250565b600082825260208201905092915050565b7f4f6e6c792073656e6465722063616e20706572666f726d20746869732061637460008201527f696f6e0000000000000000000000000000000000000000000000000000000000602082015250565b600061130f6023836112a2565b915061131a826112b3565b604082019050919050565b6000602082019050818103600083015261133e81611302565b9050919050565b7f44656c697665727920616c726561647920636f6e6669726d6564000000000000600082015250565b600061137b601a836112a2565b915061138682611345565b602082019050919050565b600060208201905081810360008301526113aa8161136e565b9050919050565b7f44656c697665727920616c726561647920617070726f76656400000000000000600082015250565b60006113e76019836112a2565b91506113f2826113b1565b602082019050919050565b60006020820190508181036000830152611416816113da565b9050919050565b7f4f6e6c7920726563697069656e742063616e20706572666f726d20746869732060008201527f616374696f6e0000000000000000000000000000000000000000000000000000602082015250565b60006114796026836112a2565b91506114848261141d565b604082019050919050565b600060208201905081810360008301526114a88161146c565b9050919050565b7f44656c697665727920494420616c726561647920657869737473000000000000600082015250565b60006114e5601a836112a2565b91506114f0826114af565b602082019050919050565b60006020820190508181036000830152611514816114d8565b9050919050565b7f496e76616c696420636f75726965722061646472657373000000000000000000600082015250565b60006115516017836112a2565b915061155c8261151b565b602082019050919050565b6000602082019050818103600083015261158081611544565b9050919050565b7f496e76616c696420726563697069656e74206164647265737300000000000000600082015250565b60006115bd6019836112a2565b91506115c882611587565b602082019050919050565b600060208201905081810360008301526115ec816115b0565b9050919050565b7f546f74616c20636f7374206d7573742062652067726561746572207468616e2060008201527f7a65726f00000000000000000000000000000000000000000000000000000000602082015250565b600061164f6024836112a2565b915061165a826115f3565b604082019050919050565b6000602082019050818103600083015261167e81611642565b9050919050565b600060808201905061169a600083018761115a565b6116a7602083018661115a565b6116b4604083018561115a565b6116c16060830184611184565b95945050505050565b7f4e6f207061796d656e7420746f20726566756e64000000000000000000000000600082015250565b60006117006014836112a2565b915061170b826116ca565b602082019050919050565b6000602082019050818103600083015261172f816116f3565b9050919050565b600060408201905061174b600083018561115a565b6117586020830184611184565b9392505050565b7f4f6e6c792061737369676e656420636f75726965722063616e20706572666f7260008201527f6d207468697320616374696f6e00000000000000000000000000000000000000602082015250565b60006117bb602d836112a2565b91506117c68261175f565b604082019050919050565b600060208201905081810360008301526117ea816117ae565b905091905056fea2646970667358221220c814bd075ceae379496ab5ab6dddea525e7ad0716ca9fcfd372a0c7da1c30dd764736f6c63430008140033",
  "linkReferences": {},
  "deployedLinkReferences": {}
}